:100855002020202020202020202020202020202093
:1008650000256C64003132332B3435362D37383959
:050875002A3C303D2F7C
:08050A008B608A6189628D6338
:10051200E4F564F569F568F567F566F56DF56CF572
:100522006BF56AAF63EF3395E0FEC3E5649FEE645B
:1005320080F87480985074AB60AA61A96285648265
:1005420075830012035FFF642B6060EF642D605BB4
:10055200EF642A6056EF642F6051AF69AE68AD67F1
:10056200AC66E47B0AFAF9F812038C8F698E688D07
:10057200678C66AB60AA61A962856482758300128A
:10058200035FFF3395E0FEEF24D0FFEE34FFFEE47D
:10059200FCFDE5692FF569E5683EF568ED3567F51F
:1005A20067EC3566F5660564020525AB60AA61A9AC
:1005B20062AF6405648F8275830012035FF565AFD5
:1005C20063EF3395E0FEC3E5649FEE6480F87480C8
:1005D200985063AB60AA61A9628564827583001238
:1005E200035F643D6050AF6DAE6CAD6BAC6AE47B93
:1005F2000AFAF9F812038C8F6D8E6C8D6B8C6AABD4
:1006020060AA61A96285648275830012035FFF3369
:1006120095E0FEEF24D0FFEE34FFFEE4FCFDE56D35
:100622002FF56DE56C3EF56CED356BF56BEC356ACF
:10063200F56A05648089E56524D6603724FD601D6E
:1006420024FE604224047051E569256DFFE568359A
:100652006CFEE567356BFDE566356AFC22C3E5692C
:10066200956DFFE568956CFEE567956BFDE5669512
:100672006AFC22AF6DAE6CAD6BAC6AAB69AA68A9BD
:1006820067A86602038CAB6DAA6CA96BA86AAF69F6
:0E069200AE68AD67AC6602079BE4FFFEFDFCA0
:0106A0002237
:1006A100E4F55F1207528F5EE55EF4603BEF900860
:1006B1006A93FFAE5F055F74402EF8A6077440256C
:1006C1005FF8E4F67BFF7A087955FDFF1207DF7BBF
:1006D100007A0079401208C6C374109FFF7B007A2C
:1006E100007940E4FD1207DFE55EB40C0BE55FD352
:1006F10094004004155F155FE55EB40EA67B007A99
:100701000079401208C6AD077B007A0079401205D6
:100711000A8F698E688D678C667563FF75640875CD
:1007210065667B007A00792212005F7BFF7A087987
:10073100557D01E4FF1207DF7B007A007922120860
:10074100C6C374109FFF7B007A0079227D010207E6
:01075100DFC8
:0809200012082F1206A180FB52
:1008B000AD071FED600FE4FEEEC394FA50F20000A6
:0508C00000000E80F3B2
:0108C5002210
:1008DB00C2A6D2A5D2A700000000E580339200C2C9
:0308EB00A7A200C1
:0108EE0022E7
:10087A001208DB40FBC2A6C2A5C2A700008F8000F7
:0C088A00000000D2A700000000C2A7225E
:1008EF0053070153050FEF6003430540ED4480FFAD
:0308FF0002087A72
:100896001208DB40FBD2A6C2A5C2A78F80000000CB
:0A08A60000D2A700000000C2A72244
:0A07DF008B608A618962AE05AD07E8
:1007E900E4FCAF061208EFAB60AA61A9628C8275BE
:0E07F900830012035FFF60061208960C80E971
:0108070022CE
:10082F007F3812087A7F011208B07F0C12087A7F86
:10083F00011208B07F0612087A7F011208B07F01FB
:06084F0012087A0208B055
:08092800F7FBFDFE70B0D0E00A
:10090200AD071FED600BE4FEEEC3947850F20E804B
:01091200F7ED
:0109130022C1
:100752007590F0E59064F0603D7F0A120902E59021
:1007620064F06032E4FFEF90092893F590E4FEEE26
:1007720090092C93FDE59054F0B50512EE25E02585
:10078200E02FFDEF90092893B590F8AF05220EBE39
:0807920004DD0FBF04D07FFF5E
:01079A00223C
:03000000020914DE
:0C091400787FE4F6D8FD7581730209209D
:10035F00BB010CE58229F582E5833AF583E0225053
:10036F0006E92582F8E622BBFE06E92582F8E2229D
:0D037F00E58229F582E5833AF583E49322B7
:10038C00E88FF0A4CC8BF0A42CFCE98EF0A42CFC10
:10039C008AF0EDA42CFCEA8EF0A4CDA8F08BF0A48E
:1003AC002DCC3825F0FDE98FF0A42CCD35F0FCEBED
:1003BC008EF0A4FEA9F0EB8FF0A4CFC5F02ECD39B2
:0F03CC00FEE43CFCEAA42DCE35F0FDE43CFC221F
:10079B00C2D5E830E70FB2D5E4C39BFBE49AFAE489
:1007AB0099F9E498F8EC30E717B2D51207D1120497
:1007BB0042E4C39BFBE49AFAE499F9E498F88003CA
:1007CB0012044230D50DE4C39FFFE49EFEE49DFD71
:0407DB00E49CFC227C
:10000300E56F2463F8E6056F2278603007027863B2
:10001300E475F0011204D40203DB2000EB7F2ED23F
:10002300008018EF540F2490D43440D4FF30040BD5
:10003300EF24BFB41A0050032461FFE5706002157A
:10004300700573E5737002057230070D7860E4750F
:10005300F0011204D4EF0203F40208087403D20778
:100063008003E4C207F56F8B608A618962E4F570EF
:10007300F572F573E57060077F2012003E80F57519
:1000830071FFC201C200C202C203C205C206C20896
:1000930012000CFF700D3007057F0012004FAF7385
:1000A300AE7222B4255FC2D5C20412000CFF24D065
:1000B300B40A00501A75F00A787030D50508B6FFF7
:1000C3000106C6A426F620D5047002D20380D924E3
:1000D300CFB41A00EF5004C2E5D20402024FD2019A
:1000E30080C6D20080C0D20280BCD2D580BAD205ED
:1000F30080B47F2012003E2002077401B5700040D7
:10010300F1120003FF12003E020077D208D20680EC
:1001130095120003FB120003FA120003F94A4B7015
:100123000679207A037BFF20022EE570602A7E0089
:100133008E8275830012035F60060EEE657170F0A8
:10014300C2D5EBC0E0EAC0E0E9C0E0EE120296D00F
:10015300E0F9D0E0FAD0E0FB1203DBFF60AAEBC0CA
:10016300E0EAC0E0E9C0E012003ED0E02401F9D0AB
:10017300E03400FAD0E0FBE5710460DCD571D9808E
:10018300877BFF7A027992D202809C791080027970
:1001930008C206C2088008D2D5790A8004790AC247
:1001A300D5E571047002F571E4FAFDFEFF12000358
:1001B300FC7B08200113120003FD7B1030000A12A0
:1001C3000003FE120003FF7B20EC3382D592D5504F
:1001D30013C3E43000069FFFE49EFEE42001039D69
:1001E300FDE49CFCE4CBF8C201EC700CCFCECDCC8B
:1001F300E824F8F870F38017C3EF33FFEE33FEED16
:1002030033FDEC33FCEB33FB994002FB0FD8E9EBF6
:10021300300105F8D0E0C448B201C0E00AEC4D4E0D
:100223004F78207B0070C2EAB5710040BCC0E01279
:100233000298D0F0D0E0200104C4C0E0C4B201C0F1
:10024300F0120027D0F0D5F0EB0200771204E4019E
:100253001453018E5800E54C00E14201924F019A7C
:0F02630044019A4900FA4301A0550184460184E1
:100272004501844703405000E92D00ED2E01102B6B
:1002820000F123010E2003292A00A94800000108D9
:100292003F3F3F00790AA2D5200314300509B91067
:1002A200020404B9080104A2D52006025001042068
:1002B20002689202B570005034C0E07F203003190A
:1002C2007F30A20272067205500F1202EFC202C202
:1002D20006C205C2087F30800F300503E9C0E01274
:1002E200003E300503D0E0F9D0E0B570CC30051700
:1002F2007F30B9100C12003E7F583004077F78809F
:1003020003B9080312003E3002057F2D02003E7F32
:10031200202008F87F2B2006F322920280CF286E3D
:10032200756C6C2900D2011200033001F8C2017809
:100332007030D50108F60200A92D50434958120029
:10034200032403B405004001E490033B9312002F01
:0D035200743A12002FD20375700402018E60
:1008C600E4FFFE1203DB600C0FEF70010E09E97006
:0508D600F20A80EF2290
:1003DB00BB010689828A83E0225002E722BBFE0220
:0903EB00E32289828A83E4932253
:1003F400BB010689828A83F0225002F722BBFE01E8
:02040400F322E1
:1004060075F008758200EF2FFFEE33FECD33CDCCAD
:1004160033CCC58233C5829BED9AEC99E582984030
:100426000CF582EE9BFEED9AFDEC99FC0FD5F0D60D
:10043600E4CEFBE4CDFAE4CCF9A88222B800C1B937
:100446000059BA002DEC8BF084CFCECDFCE5F0CB75
:10045600F97818EF2FFFEE33FEED33FDEC33FCEBAE
:1004660033FB10D703994004EB99FB0FD8E5E4F969
:10047600FA227818EF2FFFEE33FEED33FDEC33FC56
:10048600C933C910D7059BE99A4007EC9BFCE99A4A
:10049600F90FD8E0E4C9FAE4CCFB2275F010EF2F8F
:1004A600FFEE33FEED33FDCC33CCC833C810D7078F
:1004B6009BEC9AE899400AED9BFDEC9AFCE899F8CA
:0E04C6000FD5F0DAE4CDFBE4CCFAE4C8F9225D
:1004D400FAE6FB0808E6F925F0F618E6CA3AF62229
:1004E400D083D082F8E4937012740193700DA3A3A7
:1004F40093F8740193F5828883E4737402936860BB
:06050400EFA3A3A380DFBA
:10080800EFB40A07740D120813740A309811A899E6
:10081800B8130CC2983098FDA899C298B811F63050
:0708280099FDC299F5992228
:00000001FF
